S01600004772616669635446545F546573742E73726563D5
S113000071C000008EC000008CC0000002C100005E
S113001088C0000086C0000084C0000082C00000C8
S113002080C000007EC000007CC000007AC00000D8
S113003078C0000076C0000074C0000072C00000E8
S113004070C000006EC000006CC000006AC00000F8
S113005068C0000066C0000064C0000062C0000008
S113006060C000005EC000005CC000005AC0000018
S113007058C0000056C0000054C0000052C0000028
S113008050C000004EC000004CC000004AC0000038
S113009048C0000046C0000044C0000042C0000048
S11300A040C000003EC000003CC000003AC0000058
S11300B038C0000036C0000034C0000032C0000068
S11300C030C000002EC000002CC000002AC0000078
S11300D028C0000026C0000024C0000022C0000088
S11300E020C0000011241FBECFEFD1E2DEBFCDBF80
S11300F000E00CBF15E1A0E0B2E0E8E0F1E100E0CF
S11301000BBF02C007900D92AC38B107D9F725E1B7
S1130110ACE8B5E101C01D92AF39B207E1F761D196
S1130120F1C76ECFE9EBF0E080818C7F808382E0C1
S11301308093B80008958091BC00882344F084E63D
S1130140ECEBF0E09081992314F08150D9F70895F5
S113015084EA8093BC00EFCF0895AF92BF92CF9210
S1130160DF92EF92FF920F931F93CF93DF93880F49
S1130170D82FD160EDDFC0E009EB10E00F2EFCEBCF
S1130180EF2EF12CF02D0F2EF4E8AF2EF02D0F2EC4
S1130190FBEBCF2ED12CF02D0F2EF4ECBF2EF02D37
S11301A0F8019081987F903479F018F4983031F008
S11301B015C0903569F0983571F010C0F601D08300
S11301C0F701B082B8DF0AC0F701A082B4DF06C02D
S11301D08091BB0007C08091BB0004C0CF5FCA3FC1
S11301E0F9F608C094E99093BC00CF5FCA3F30F0A1
S11301F08EEE04C084E98093BC008EEEDF91CF9133
S11302001F910F91FF90EF90DF90CF90BF90AF9030
S113021008951F920F920FB60F9211240BB60F92EE
S1130220CF92EF92FF920F931F932F933F934F938D
S11302305F936F937F938F939F93AF93BF93EF934A
S1130240FF9388E28ADF80939E1581E090E090938B
S113025099158093981580919E15823501F58091AA
S11302609815909199150197D1F460919415709116
S11302709515809196159091971520E030E040E80F
S11302805FE305D560939415709395158093961547
S113029090939715109299151092981547C08091D4
S11302A09E15873401F580919815909199150197C1
S11302B0D1F460919015709191158091921590915F
S11302C0931520E030E040E85FE3E1D460939015BB
S11302D0709391158093921590939315109299159C
S11302E01092981523C080919E158234F9F4809160
S11302F09815909199150197C9F460918C15709196
S11303008D1580918E1590918F1520E030E040E896
S11303105FE3BDD460938C1570938D1580938E1517
S113032090938F1510929915109298150F2EFFE146
S1130330CF2EF02D0F2EFFE3EF2EF02D0FE120EF47
S113034030E040E451E060E070E080E090E0FFD015
S11303504AE050E06AE070E080E092E021D24AE0B6
S113036050E068EC70E08FE092E01AD2E0908C15D7
S1130370F0908D1500918E1510918F152091901588
S11303803091911540919215509193156091941567
S1130390709195158091961590919715D6D357D055
S11303A02FEF87EA91E6215080409040E1F700C0AA
S11303B00000FF91EF91BF91AF919F918F917F9139
S11303C06F915F914F913F912F911F910F91FF90EA
S11303D0EF90CF900F900BBE0F900FBE0F901F9019
S11303E0189578944DD44FD09DDE0F2EFFE1CF2E7B
S11303F0F02D0F2EFFE3EF2EF02D0FE120EF30E074
S113040040E451E060E070E080E090E0A0D04AE099
S113041050E06AE070E080E092E0C2D14AE050E04F
S113042068EC70E08FE092E0BBD1FFCF88B95F98B1
S1130430A198A2980000A29A0000089592B988B9E0
S11304405F9AA198A2980000A29A0000089589E2F8
S113045090E0ECCF089581E190E0E8CF0895CF9348
S1130460C82F86E390E0E2DF8C2F90E0E7DFCF91A6
S11304700895CF93C82F8AE390E0D8DF8C2F90E0C3
S1130480DDDFCF91089583B3876083BB579A529879
S11304908FEF81B987B984B3876084BB5F9A5A9818
S11304A0A1982FEF85EA9EE0215080409040E1F72B
S11304B000C00000A19A2FEF88E596E0215080400B
S11304C09040E1F700C00000C6DFC1DF88E0C7DF6D
S11304D085E0CFCF08958CE290E0A8CF08950F93E4
S11304E01F93CF93DF93082FD92F162FC72F8AE29C
S11304F090E09CDF8D2F90E0A1DF802F9D2F9EDF69
S11305008C2F90E09BDF812F9C2F98DFDF91CF9180
S11305101F910F9108950F931F93CF93DF93082F8B
S1130520D92F162FC72F8BE290E080DF8D2F90E01C
S113053085DF802F9D2F82DF8C2F90E07FDF812F3E
S11305409C2F7CDFDF91CF911F910F9108958F92A3
S11305509F92AF92BF92CF92DF92EF92FF920F934E
S11305601F93CF93DF93EB014A015901BC01640F40
S1130570751FD1DFBE016A0D7B1DCE01B0DFABDF7D
S11305809401D501B0D54B015C01672B682B692B15
S1130590E1F080E2E89E70011124EC2810E0102FB5
S11305A00027110F110F110F0E291F29C12CD12C57
S11305B07601C80143DF8FEFC81AD80AE80AF80A9F
S11305C0C814D904EA04FB04A1F7DF91CF911F9169
S11305D00F91FF90EF90DF90CF90BF90AF909F90DE
S11305E08F900895880F991FFC01E05FFB4E2081D6
S11305F03181C901969587959695879596958795A6
S113060027703327121613060CF4019608952F92BF
S11306103F924F925F926F927F928F929F92AF928E
S1130620BF92CF92DF92EF92FF920F931F93CF93DB
S1130630DF93F9013796141615060CF053C0660FB4
S1130640771F660F771F660F771F5B01A20EB31E1D
S1130650EC01CE0DDF1DE40EF51E4C018E0C9F1C2B
S11306606F01C9016894EE24E7F8F12C2E2E3F2E79
S1130670422E532EB6014FDFB801C80130DF2BDF05
S1130680612C712C8881282F30E0C701062C02C010
S1130690959587950A94E2F782239323892B21F079
S11306A080E090E0CBDE03C08FEF9FEFC7DE8FEFDB
S11306B0681A780A88E06816710421F79601285FA1
S11306C03F4F2A153B0524F4C6010196690106C073
S11306D00F5F1F4FC22CD32C842D952D2196C81546
S11306E0D90541F6DF91CF911F910F91FF90EF90C3
S11306F0DF90CF90BF90AF909F908F907F906F903E
S11307005F904F903F902F900895EF92FF920F9338
S11307101F93CF93DF938A0120919A1530919B15F3
S11307202617370741F070939B1560939A157093C1
S11307309D1560939C15EC01CC0FDD1FFE01EE0F9F
S1130740FF1FEE5EFB4EE080F180CE014BDF209177
S11307509C1530919D15FE01EE0FFF1FEA5EFB4EC6
S1130760408151814E195F09BC0186E192E04FDF5F
S113077080919C1590919D150196CC0FDD1FC05F53
S1130780DB4E28813981820F931F90939D158093AE
S11307909C15DF91CF911F910F91FF90EF900895D9
S11307A0AF92BF92CF92DF92EF92FF920F931F937B
S11307B0CF93DF93CDB7DEB7C65CD1090FB6F894FB
S11307C0DEBF0FBECDBFFE01319626ECDF011D92C8
S11307D02A95E9F7FC0120812223A1F1DE0111967B
S11307E07D01319600E010E030E02D933D930F5FE2
S11307F01F4F21912111F8CF101611061CF55A0133
S11308006B01000F111FE1E0F0E0EC0FFD1F0E0F74
S11308101F1FD7018D919D917D0181978F3FBFEF60
S11308209B0721F0A501B60170DF09C080919C15DA
S113083090919D15069690939D1580939C150E1589
S11308401F0539F7CA53DF4F0FB6F894DEBF0FBE4A
S1130850CDBFDF91CF911F910F91FF90EF90DF906B
S1130860CF90BF90AF9008952F923F924F925F9296
S11308706F927F928F929F92AF92BF92CF92DF92AC
S1130880EF92FF920F931F93CF93DF93CDB7DEB711
S11308902C970FB6F894DEBF0FBECDBF4B015C01A1
S11308A06A0119010F2EFAE04F2E512C612C712C84
S11308B0F02DA3019201FBD37A836983CA01B901A4
S11308C0A3019201F4D37C836B83C501B40124E6B4
S11308D030E040E050E0EBD3CA01B901A30192013A
S11308E0E6D37E836D83C501B40128EE33E040E096
S11308F050E0DDD3CA01B901A3019201D8D37887AE
S11309006F83C501B40120E137E240E050E0CFD36A
S1130910CA01B901A3019201CAD37A876987C501C3
S1130920B40120EA36E841E050E0C1D3CA01B9017C
S1130930A3019201BCD37C876B878E01035F1F4F99
S1130940CE0101967C0140E050E099249394812CDF
S113095066246394712CF801329122918F01992DB0
S11309602115310509F4982D911107C0992D4130B5
S1130970510509F0982D992339F0A101B601C90157
S11309800F96C3DE462D572D0E151F0521F7D09265
S11309909D15C0929C152C960FB6F894DEBF0FBE21
S11309A0CDBFDF91CF911F910F91FF90EF90DF901A
S11309B0CF90BF90AF909F908F907F906F905F90FB
S11309C04F903F902F900895AF92BF92CF92EF92A5
S11309D00F93CF93DF93EB015A0127EC30E0241BF4
S11309E0350BBC01990F880B990B4CE850E03CDFA8
S11309F0CA0DDB1DCB58D1098FEE90E09C012A195A
S1130A003B0959010F2EFFE3CF2EF02D0F2EFFE1EE
S1130A10EF2EF02D0FE19E0142E350E0B50182E894
S1130A2090E095DDC12CE12C9E0142E350E0B5013C
S1130A3082E890E08CDDDF91CF910F91EF90CF9021
S1130A40BF90AF900895AF92BF92CF92EF920F9361
S1130A50CF93DF93EB015A0127EC30E0241B350BD5
S1130A60BC01990F880B990B48E250E0FDDECA0DDA
S1130A70DB1DCB58D1098FEE90E09C012A193B096C
S1130A8059010F2EFFE3CF2EF02D0F2EFFE1EF2E95
S1130A90F02D0FE19E0142E350E0B5018EE190E0BC
S1130AA056DDC12C00E09E0142E350E0B5018EE129
S1130AB090E04DDDDF91CF910F91EF90CF90BF90FB
S1130AC0AF900895AF92BF92CF92EF920F93CF93CE
S1130AD0DF93EB015A0127EC30E0241B350BBC01FA
S1130AE0990F880B990B40EF50E0BEDECA0DDB1D59
S1130AF0CB58D1098FEE90E09C012A193B0959018A
S1130B000F2EFFE3CF2EF02D0F2EFFE1EF2EF02D51
S1130B100FE19E0142E350E0B50186EE90E017DD5F
S1130B200F2EFFE1CF2EF02DE12C00E09E0142E3D9
S1130B3050E0B50186EE90E00ADDDF91CF910F9190
S1130B40EF90CF90BF90AF9008954F925F926F92C5
S1130B507F928F929F92AF92BF92CF92DF92EF9249
S1130B60FF920F931F93CF93DF93CDB7DEB72C97EC
S1130B700FB6F894DEBF0FBECDBF2B013C01298315
S1130B803A834B835C83ED82FE820F8318877FD088
S1130B90A80197017CD047D16B01770FEE08FF08BD
S1130BA0C701B60173D14B015C019B01AC01C301C8
S1130BB0B201D1D020E030E04BE053E4F3D133D1A3
S1130BC069877A878B879C87C301B2012CD1DC01AA
S1130BD0CB0149855A856BE870E0F6DEA5019401E6
S1130BE069817A818B819C81B6D020E030E04BE032
S1130BF053E4D8D118D12B013C0169817A818B81CE
S1130C009C8111D1DC01CB01A2016BE870E01BDFF8
S1130C10A50194016D817E818F8198859CD020E00F
S1130C2030E04BE053E4BED1FED04B015C016D815A
S1130C307E818F819885F7D0DC01CB01A4016BE81C
S1130C4070E040DF2AE030E044E051E0C701B60143
S1130C500BDE2C960FB6F894DEBF0FBECDBFDF912E
S1130C60CF911F910F91FF90EF90DF90CF90BF90A5
S1130C70AF909F908F907F906F905F904F9008956A
S1130C8080E38093690084E08DBB08955058BB27AE
S1130C90AA270ED04DC13ED130F043D120F031F41B
S1130CA09F3F11F41EF433C10EF4E095E7FB29C114
S1130CB0E92F4FD180F3BA176207730784079507AA
S1130CC018F071F49EF567C10EF4E0950B2EBA2F5F
S1130CD0A02D0B01B90190010C01CA01A00111243E
S1130CE0FF27591B99F0593F50F4503E68F11A16EA
S1130CF0F040A22F232F342F4427585FF3CF46957B
S1130D0037952795A795F0405395C9F77EF41F169C
S1130D10BA0B620B730B840BBAF09150A1F0FF0F66
S1130D20BB1F661F771F881FC2F70EC0BA0F621F52
S1130D30731F841F48F4879577956795B795F79542
S1130D409E3F08F0B3CF9395880F08F09927EE0FD4
S1130D509795879508950CD0EBC0E3D040F0DAD096
S1130D6030F021F45F3F19F0CCC0511115C1CFC050
S1130D70F0D098F39923C9F35523B1F3951B550B80
S1130D80BB27AA2762177307840738F09F5F5F4F5A
S1130D90220F331F441FAA1FA9F333D00E2E3AF09B
S1130DA0E0E830D091505040E695001CCAF729D0B5
S1130DB0FE2F27D0660F771F881FBB1F2617370704
S1130DC04807AB07B0E809F0BB0B802DBF01FF2734
S1130DD093585F4F2AF09E3F510568F092C0DCC0E3
S1130DE05F3FECF3983EDCF3869577956795B7956E
S1130DF0F7959F5FC9F7880F911D9695879597F989
S1130E000895E1E0660F771F881FBB1F6217730701
S1130E108407BA0720F0621B730B840BBA0BEE1F16
S1130E2088F7E095089504D06894B111B5C0089589
S1130E3098D088F09F5790F0B92F9927B751A0F018
S1130E40D1F0660F771F881F991F1AF0BA95C9F75A
S1130E5012C0B13081F09FD0B1E008959CC0672FDB
S1130E60782F8827B85F39F0B93FCCF3869577950A
S1130E706795B395D9F73EF49095809570956195F3
S1130E807F4F8F4F9F4F0895E89409C097FB3EF41E
S1130E9090958095709561957F4F8F4F9F4F9923C3
S1130EA0A9F0F92F96E9BB279395F6958795779541
S1130EB06795B795F111F8CFFAF4BB0F11F460FF01
S1130EC01BC06F5F7F4F8F4F9F4F16C0882311F059
S1130ED096E911C0772321F09EE8872F762F05C06D
S1130EE0662371F096E8862F70E060E02AF09A9508
S1130EF0660F771F881FDAF7880F9695879597F9FD
S1130F00089597F99F6780E870E060E008959FEF87
S1130F1080EC089500240A9416161706180609068C
S1130F20089500240A94121613061406050608955B
S1130F30092E0394000C11F4882352F0BB0F40F4E3
S1130F40BF2B11F460FF04C06F5F7F4F8F4F9F4F23
S1130F50089557FD9058440F551F59F05F3F71F0A5
S1130F604795880F97FB991F61F09F3F79F087950C
S1130F700895121613061406551FF2CF4695F1DF95
S1130F8008C0161617061806991FF1CF8695710525
S1130F90610508940895E894BB2766277727CB0159
S1130FA097F908950BD0C4CFB5DF28F0BADF18F055
S1130FB0952309F0A6CFABCF1124EECFCADFA0F35F
S1130FC0959FD1F3950F50E0551F629FF001729FDA
S1130FD0BB27F00DB11D639FAA27F00DB11DAA1FF9
S1130FE0649F6627B00DA11D661F829F2227B00D46
S1130FF0A11D621F739FB00DA11D621F839FA00DD1
S1131000611D221F749F3327A00D611D231F849F20
S1131010600D211D822F762F6A2F11249F57504077
S11310208AF0E1F088234AF0EE0FFF1FBB1F661F12
S1131030771F881F91505040A9F79E3F510570F0CB
S113104060CFAACF5F3FECF3983EDCF386957795AB
S11310506795B795F795E7959F5FC1F7FE2B880FC6
S1131060911D9695879597F90895A1E21A2EAA1BCA
S1131070BB1BFD010DC0AA1FBB1FEE1FFF1FA21744
S1131080B307E407F50720F0A21BB30BE40BF50B41
S1131090661F771F881F991F1A9469F760957095CA
S11310A0809590959B01AC01BD01CF010895052E5B
S11310B097FB16F400940FD057FD05D0D6DF07FC3C
S11310C002D046F408C050954095309521953F4F85
S11310D04F4F5F4F089590958095709561957F4F20
S11310E08F4F9F4F0895A29FB001B39FC001A39F4C
S11310F0700D811D1124911DB29F700D811D11244D
S10B1100911D0895F894FFCF3E
S1131108536F727465726572204D264D27730054AF
S11311186F74616C3A000000C0C0C0C0C0C0C0C0D9
S1131128C0C0C0C0C0C00000C0C0C00000000000F3
S11311380000C6C6C6C6C6C6C60000000000000039
S1131148000000000000000000000000000006305D
S113115806300C600C600C607FF87FF818C018C06B
S113116818C018C018C0FFF0FFF0318031803180FA
S1131178630063000000000000000000000002009B
S113118802000FC03FE07270C238C218C200E20009
S113119872003F000FE002F002380218C218C218A9
S11311A8623872703FE00F80020002000000000005
S11311B800000000000000003E03007F0600E386F4
S11311C800C18C00C18C00C19800C19800E3B00034
S11311D87F30003E67C000CFE000DC70019830012A
S11311E89830031830031830061C70060FE00C07FB
S11311F8C000000000000000000000000000000023
S1131208000000000F801FC038E030603060386094
S113121819C01F801E003F00730CE38CC1DCC0F8AA
S1131228C078E07070F83FDC1F0800000000000080
S1131238000000000000C0C0C0C0C0C0C000000062
S11312480000000000000000000000000000000092
S11312580C18183030606060C0C0C0C0C0C0C0C0C6
S1131268606060303018180C0000C06060303018BE
S113127818180C0C0C0C0C0C0C0C181818303060CA
S113128860C000001818DBFF183C6624000000004A
S11312980000000000000000000000000000000042
S11312A80000000000000600060006000600060014
S11312B8FFF0FFF006000600060006000600000026
S11312C80000000000000000000000000000000012
S11312D80000000000000000000000000000000002
S11312E80000C0C0C0404040800000000000000072
S11312F800000000000000FEFE00000000000000E6
S113130800000000000000000000000000000000D1
S1131318000000000000C0C0C00000000000000081
S113132803070606060C0C0C1818183030306060D9
S113133860E0C00000000000000000000F803FE0F3
S1131348306060306030C018C018C018C018C018A9
S1131358C018C018C018C0186030603030603FE052
S11313680F800000000000000000000000000606D6
S11313780E1EFEF6060606060606060606060606F9
S1131388060000000000000000000FC03FE070707D
S11313986038C018C018001800380030006001C058
S11313A8038007001C00380070006000FFF8FFF895
S11313B800000000000000000000000000001F8082
S11313C83FE07060E030C0300030003000E007C01B
S11313D807E00070003800180018C018E038707072
S11313E83FE01F8000000000000000000000000033
S11313F80000006000E000E001E0036006600660B1
S11314080C601860186030606060C060FFFCFFFC0E
S11314180060006000600060000000000000000040
S11314280000000000003FF03FF0300030003000C2
S1131438600067807FE0787060300018001800183A
S11314480018C018E03070703FE01F8000000000F2
S1131458000000000000000000000FC01FE038700A
S113146870186018E000C000CF80DFE0F070C0386A
S1131478C018C018C0186018603038701FE00F809A
S11314880000000000000000000000000000FFF859
S1131498FFF80038003000300060006000C000C071
S11314A801800180030003000700060006000C0009
S11314B80C001800000000000000000000000000FC
S11314C800000F803FE070706030603060307070F2
S11314D838E01FC01FC038E06030C018C018C018FA
S11314E8E03870703FE01FC00000000000000000FA
S11314F80000000000000F803FC070E06030C03082
S1131508C018C018C018E01870783FD80F98001891
S11315180038C030C07070E03FC01F800000000079
S113152800000000000000000000000000C0C0C06F
S11315380000000000000000C0C0C000000000005F
S113154800000000000000C0C0C00000000000004F
S11315580000C0C0C04040408000000000000000FF
S1131568000000000010007003E00F803E00F80047
S1131578C000F8003E000F8003E000700010000077
S1131588000000000000000000000000000000004F
S1131598000000000000000000000000FFF0FFF061
S11315A80000000000000000FFF0FFF00000000051
S11315B8000000000000000000000000000000001F
S11315C80000000000000000000000008000E000AF
S11315D87C001F0007C001F0003001F007C01F00A5
S11315E87C00E00080000000000000000000000013
S11315F8000000000000000000001F003FC070C091
S11316086060C060C060006000C001800700060020
S11316180C000C000C00000000000C000C000C0076
S113162800000000000000000000000000000000AE
S1131638007F0003FFC00780F00E00381C00183834
S11316487D8C70FF8C61C786638386C30306C703DA
S113165806C60306C60306C6060EC6060CC60E1C38
S1131668631E3863F7F071E3C03800001C00000FF4
S1131678804003FFE000FF8000000000000001C07C
S11316880001E0000360000370000330000630002E
S11316980618000E18000C0C000C0C00180C001F87
S11316A8FE001FFE00300300300300600380600169
S11316B880600180C000C00000000000000000003D
S11316C800000000000000000000FFC0FFF0C03070
S11316D8C018C018C018C018C030FFE0FFF0C038E8
S11316E8C01CC00CC00CC00CC01CC038FFF0FFC02C
S11316F8000000000000000000000000000007F0E7
S11317080FF83C1E300660036003C000C000C00030
S1131718C000C000C000C0006003600330063C1E67
S11317280FFC07F0000000000000000000000000AB
S11317380000FFC0FFF0C03CC00CC006C006C003D8
S1131748C003C003C003C003C003C003C006C0066F
S1131758C00CC03CFFF0FFC0000000000000000007
S1131768000000000000FFFCFFFCC000C000C00037
S1131778C000C000C000FFF8FFF8C000C000C000EF
S1131788C000C000C000C000FFFCFFFC0000000057
S113179800000000000000000000FFF8FFF8C0008F
S11317A8C000C000C000C000C000FFF0FFF0C000CF
S11317B8C000C000C000C000C000C000C000C0001D
S11317C8000000000000000000000000000000000D
S11317D803F0000FFC001C0E003003006001806061
S11317E80180C00000C00000C00000C07F80C07F2E
S11317F880C00180C0018060018060018030038066
S11318081C0F800FFD8003F9800000000000000019
S1131818000000000000000000000000C003C00336
S1131828C003C003C003C003C003C003FFFFFFFF1E
S1131838C003C003C003C003C003C003C003C00384
S1131848C003000000000000000000000000C0C049
S1131858C0C0C0C0C0C0C0C0C0C0C0C0C0C0C0C07C
S1131868C00000000000000000000060006000608C
S1131878006000600060006000600060006000605C
S113188800600060C060C060E06060C07FC01F008E
S11318980000000000000000000000000000C00C70
S11318A8C018C030C060C0C0C180C300C600CF002B
S11318B8DB80F180E0C0C060C070C038C018C00CC4
S11318C8C006C0070000000000000000000000007F
S11318D80000C000C000C000C000C000C000C000BC
S11318E8C000C000C000C000C000C000C000C000EC
S11318F8C000C000FFF0FFF000000000000000007E
S11319080000000000000000F003C0F003C0F00372
S1131918C0D806C0D806C0D806C0CC0CC0CC0CC0F1
S1131928CC0CC0C618C0C618C0C618C0C330C0C3C3
S113193830C0C330C0C1E0C0C1E0C0C1E0C0C0C055
S1131948C0000000000000000000000000000000CB
S113195800000000E003E003F003D803D803CC033D
S1131968C603C703C303C183C0C3C0E3C063C03392
S1131978C01BC01BC00FC007C00700000000000048
S11319880000000000000000000003F0000FF80051
S11319983C1E00300600600300600300C00180C0E4
S11319A80180C00180C00180C00180C00180C001E5
S11319B8806003006003003006003C1E000FF8003E
S11319C803F0000000000000000000000000000018
S11319D8000000000000FFE0FFF8C038C01CC00C85
S11319E8C00CC00CC01CC038FFF0FFC0C000C00051
S11319F8C000C000C000C000C000C000000000005B
S1131A0800000000000000000000000003F0000FC8
S1131A18F8003C1E00300600600300600300C001AB
S1131A2880C00180C00180C00180C00180C00180E5
S1131A38C00380602300607700303E003C1E000F26
S1131A48FF0007E380000100000000000000000020
S1131A580000000000000000FFF0FFFCC01CC00EE6
S1131A68C006C006C006C006C01CFFF8FFE0C038A8
S1131A78C018C00CC00CC006C006C006C0030000D5
S1131A880000000000000000000000000FC01FF06C
S1131A9838386018600C600C70003C001FC00FF0F0
S1131AA800F8001CC00CC00CE00C601C78383FF037
S1131AB80FC000000000000000000000000000004B
S1131AC8FFFCFFFC03000300030003000300030002
S1131AD803000300030003000300030003000300E2
S1131AE803000300030000000000000000000000E1
S1131AF800000000C003C003C003C003C003C00348
S1131B08C003C003C003C003C003C003C003C003B1
S1131B18E0076006781E3FFC0FF00000000000009C
S1131B2800000000000000000000C000C060018048
S1131B386001807003803003003003001806001829
S1131B4806001C0E000C0C000C0C000618000618ED
S1131B580007380003300003300001E00001E00012
S1131B6801E0000000000000000000000000000088
S1131B7800000000000000000000C01C0180C01C20
S1131B880180603603006036030060360300303697
S1131B98060030630600306306003063060018C18F
S1131BA88C0018C18C0018C18C000D80D8000D80E1
S1131BB8D8000D80D8000D80D800070070000700F9
S1131BC87000070070000000000000000000000022
S1131BD800000000000000000000000000000000F9
S1131BE87003803003001806000C0C000618000669
S1131BF8180003300001E00000C00001C00001E04B
S1131C08000330000618000C0C000C0C0018060029
S1131C18300300600180E001C00000000000000003
S1131C280000000000000000000000000000C000E8
S1131C38C06001807003803003001806000C0C009B
S1131C4806180006180003300001E00000C0000078
S1131C58C00000C00000C00000C00000C00000C0F8
S1131C680000C00000C000000000000000000000E8
S1131C78000000000000000000007FF87FF8003832
S1131C880030006000E000C0018003000700060087
S1131C980C001800380030006000E000FFF8FFF87E
S1131CA8000000000000000000000000F8F8C0C0B8
S1131CB8C0C0C0C0C0C0C0C0C0C0C0C0C0C0C0C018
S1131CC8C0C0F8F80000C0E0606060303030181818
S1131CD8180C0C0C060606070300000000000000A0
S1131CE8F8F81818181818181818181818181818A8
S1131CF8181818181818F8F8000000000E000E003C
S1131D081B001B00318071C060C0C060000000006F
S1131D1800000000000000000000000000000000B7
S1131D2800000000000000000000000000000000A7
S1131D380000000000000000000000000000000097
S1131D480000000000000000000000000000000087
S1131D58000000000000000000000000FFFE00007A
S1131D6800E07030180000000000000000000000CF
S1131D780000000000000000000000000000000057
S1131D8800000000000000001F807FE0E070C03009
S1131D9800300FF03FF07030C030C030C030E0F099
S1131DA87FF03F3000000000000000000000000049
S1131DB80000C000C000C000C000C000CF80FFC049
S1131DC8F0E0E060C030C030C030C030C030C03057
S1131DD8C060F0E0FFC0DF00000000000000000069
S1131DE800000000000000000000000000000000E7
S1131DF80F803FC070606030C030C000C000C000B9
S1131E08C000C030603070603FC00F800000000028
S1131E180000000000000000000000300030003026
S1131E28003000300FB03FF070F06030C030C03088
S1131E38C030C030C030C030607070F03FF01F3028
S1131E480000000000000000000000000000000086
S1131E5800000000000000000F803FE07070603058
S1131E68C018C018FFF8FFF8C000C01860187070D8
S1131E783FE00FC000000000000000000000000068
S1131E880F1F383030FEFE303030303030303030D4
S1131E9830303000000000000000000000000000A6
S1131EA80000000000000FB03FF070F06030C03058
S1131EB8C030C030C030C030C030607070F03FF007
S1131EC81F300030C070E0E07FC01F8000000000B9
S1131ED8C000C000C000C000C000CF80DFC0F0E078
S1131EE8E060C060C060C060C060C060C060C060C6
S1131EF8C060C060C0600000000000000000000076
S1131F080000C0C0000000C0C0C0C0C0C0C0C0C085
S1131F18C0C0C0C0C0000000000000003030000095
S1131F2800303030303030303030303030303030D5
S1131F383030F0E000000000C000C000C000C00065
S1131F48C000C0C0C180C300C600CC00D800FC00DB
S1131F58E600C700C380C180C0C0C060C070000074
S1131F6800000000000000000000C0C0C0C0C0C0E5
S1131F78C0C0C0C0C0C0C0C0C0C0C0C0C000000095
S1131F880000000000000000000000000000000045
S1131F9800000000000000CF0F00DF9F80F1F1C0B7
S1131FA8E0E0C0C0C0C0C0C0C0C0C0C0C0C0C0C0E5
S1131FB8C0C0C0C0C0C0C0C0C0C0C0C0C0C0C0C015
S1131FC8C000000000000000000000000000000045
S1131FD80000000000000000000000000000CF80A6
S1131FE8DFC0F0E0E060C060C060C060C060C06096
S1131FF8C060C060C060C060C06000000000000035
S113200800000000000000000000000000000000C4
S113201800000F803FE070706030C018C018C0180E
S1132028C018C018C018603070703FE00F800000FE
S11320380000000000000000000000000000000094
S1132048000000000000CF80FFC0F0E0E060C03076
S1132058C030C030C030C030C030C060F0E0FFC015
S1132068DF00C000C000C000C000C00000000000C5
S1132078000000000000000000000FB03FF070F006
S11320886030C030C030C030C030C030C030607044
S113209870F03FF01F300030003000300030003066
S11320A800000000000000CEFEF0C0C0C0C0C0C0E8
S11320B8C0C0C0C0C0000000000000000000000054
S11320C800000000000000001F807FE0E070C030C6
S11320D8C000F8007F800FE00070C030C03060702E
S11320E87FE01F80000000000000000000000000E6
S11320F80000303030FEFE30303030303030303098
S1132108303E1E0000000000000000000000000037
S1132118000000000000C060C060C060C060C06013
S1132128C060C060C060C060C060C0E0E1E07F60C3
S11321383E600000000000000000000000000000F5
S113214800000000000000000000C0306060606013
S1132158606030C030C030C01980198019800F0009
S11321680F000F000600000000000000000000003F
S11321780000000000000000000000000000000053
S11321880000000000C06030E0607060F06060F043
S11321986060F0603198C03198C03198C01B0D80E0
S11321A81B0D801B0D800E07000E07000E07000094
S11321B80000000000000000000000000000000013
S11321C8000000000000000000000000E03860305B
S11321D8306018C018C00D80070007000D8018C0B3
S11321E818C030606030E0380000000000000000D3
S11321F800000000000000000000000000000000D3
S1132208C03060606060606030C030C030C0198029
S1132218198019800F000F000F00060006000C003B
S11322281C0078007000000000000000000000009E
S1132238000000007FF07FF0007000E001C0038020
S113224807000E001C0038007000E000FFF0FFF0EB
S1132258000000000000000000000000070F1C1828
S113226818181818181830E0E03018181818181822
S1132278181C0F070000C0C0C0C0C0C0C0C0C0C088
S1132288C0C0C0C0C0C0C0C0C0C0C0C0C0C00000C2
S1132298E0F038181818181818180C07070C18182C
S11322A8181818181838F0E0000000007C04FF0C17
S11322B8C3FC80F8000000000000000000000000DB
S11322C80000000000000000000000000000000002
S11322D800000000000000000000000000000000F2
S11322E800000000000000000000000000000000E2
S11322F800000000000000000000000000000000D2
S113230800000000000000000000000000000000C1
S11323180200000007001A000D0034000D006800D8
S113232814009C000E00EA0002001E010600380199
S11323380600520108006C010C0086010200BA0173
S11323480700D4010200EE01080008020D00220271
S1132358070056020D0070020D00A4020E00D802F8
S11323680D000C030D0040030D0074030D00A803B9
S11323780D00DC030200100402002A040C004404CB
S11323880C0078040C00AC040B00E00417001405DE
S1132398120062050E00B0051000E40510001806CE
S11323A80E004C060D0080061100B406100002074A
S11323B8020036070B005007100084070C00B8070A
S11323C81200EC0710003A0811006E080E00BC0851
S11323D81100F00810003E090E0072090E00A6094B
S11323E81000DA0912000E0A19005C0A1200C40A65
S11323F81200120B0D00600B0500940B0800AE0BC5
S11324080500C80B0B00E20B0F00160C05004A0C64
S11324180C00640C0C00980C0C00CC0C0C00000D87
S11324280D00340D0800680D0C00820D0B00B60D6C
S11324380200EA0D0400040E0C001E0E0200520EE7
S113244812006C0E0B00BA0E0D00EE0E0C00220FDB
S11324580C00560F07008A0F0C00A40F0700D80FB2
S11324680B00F20F0C00261014005A100D00A810CF
S11324780C00DC100C0010110800441102005E115D
S10F2488080078110E0092110E00AC1137
S9030000FC
