:1000000071C000008EC000008CC000008AC00000DB
:1000100088C0000086C0000084C0000082C00000CC
:1000200080C000007EC000007CC000007AC00000DC
:1000300078C0000076C0000074C0000072C00000EC
:1000400070C000006EC000006CC000006AC00000FC
:1000500068C0000066C0000064C0000062C000000C
:1000600060C000005EC000005CC000005AC000001C
:1000700058C0000056C0000054C0000052C000002C
:1000800050C000004EC000004CC000004AC000003C
:1000900048C0000046C0000044C000005BC1000032
:1000A00040C000009BC100003CC000003AC00000FE
:1000B00038C0000010C2000034C0000032C0000090
:1000C00030C000002EC000002CC000002AC000007C
:1000D00028C0000026C0000024C0000022C000008C
:1000E00020C0000011241FBECFEFD1E2DEBFCDBF84
:1000F00000E00CBF12E0A0E0B2E0E8EFF6E000E0C4
:100100000BBF02C007900D92AC31B107D9F722E0C6
:10011000ACE1B2E001C01D92AF32B207E1F7EFD11E
:10012000E9C26ECF2EE448E060E875E280E090E03E
:10013000F4D17894E2E7F0E0808180628083E1EAA4
:10014000F0E0808180648083808181608083109270
:10015000A0008FEF80930B0184B908959F92AF9216
:10016000BF92CF92DF92EF92FF920F931F93CF93A4
:10017000DF93C12CD12CE12CF12C00E010E00F2EEC
:10018000F0EA9F2EF02DC1E0D0E00F2EF0EEAF2E62
:10019000F02D6894BB24B5F877C08091220290912D
:1001A0002302019709F0ACC0B5B883ED90E3019745
:1001B000F1F700C00000809124029091250299235C
:1001C0001CF49195819591098C0110922302109253
:1001D0002202D0932102C093200200D280E092E05C
:1001E000EFD180911E0290911F02892B21F5809101
:1001F000220290912302019709F046C0A5B883ED31
:1002000090E30197F1F700C00000809124029091E3
:10021000250299231CF49195819591097C011092F6
:10022000230210922202D0931F02C0931E02D6D145
:1002300088E092E0C5D180911C0290911D02892B2B
:1002400019F580912202909123020197E9F495B863
:1002500083ED90E30197F1F700C000008091240244
:100260009091250299231CF49195819591096C0137
:100270001092230210922202D0931D02C0931C02FE
:10028000ADD182E192E09CD1809120029091210237
:10029000892B09F482CF80911E0290911F02892B35
:1002A00009F4A5CF80911C0290911D02892B19F2AF
:1002B000109221021092200210921F0210921E0230
:1002C00010921D0210921C02E016F1061CF4C016DA
:1002D000D10674F00E151F051CF4CE14DF0454F083
:1002E000EC14FD044CF40C151D0544F482E410C01C
:1002F00082E50EC087E40CC085E40AC085E408C02E
:1003000080911E0290911F02892B09F094CFBCCFDF
:10031000DF91CF911F910F91FF90EF90DF90CF90E1
:10032000BF90AF909F90089580E58093BA0085ECD0
:100330008093BC008FEF8AB91BB808958091B900F3
:10034000887F08958091BC008078089585EC809323
:10035000BC0008951F920F920FB60F9211240BB696
:100360000F922F933F934F935F936F937F938F934E
:100370009F93AF93BF93EF93FF93E4DF8823D9F06C
:10038000DDDF803859F018F4803631F014C0883A37
:1003900059F0803C79F00FC0D9DF0DC081E408D15D
:1003A0008091BB00D3DF07C080912C028093BB00FB
:1003B000CDDF01C0CBDFFF91EF91BF91AF919F9156
:1003C0008F917F916F915F914F913F912F910F90FE
:1003D0000BBE0F900FBE0F901F9018951F920F929B
:1003E0000FB60F9211240BB60F922F933F934F939A
:1003F0005F936F937F938F939F93AF93BF93EF938D
:10040000FF93809128029091290290932B02809370
:100410002A028091A6009091A700909329028093D0
:100420002802209128023091290280912A0290917D
:100430002B02281739077CF480912A0290912B0215
:100440002091280230912902821B930B90932E0257
:1004500080932D0216C080912802909129028091EC
:1004600026029091270280912A0290912B022091DE
:10047000280230912902821B930B90932E028093C5
:100480002D0220912D0230912E02032E000C440BE0
:10049000550B60E074E284EF90E0DDD030932502EC
:1004A0002093240281E090E0909323028093220223
:1004B000FF91EF91BF91AF919F918F917F916F913C
:1004C0005F914F913F912F910F900BBE0F900FBEF8
:1004D0000F901F9018951F920F920FB60F92112434
:1004E0008F939F938FEF9FEF909327028093260225
:1004F0009F918F910F900FBE0F901F9018952EE433
:1005000048E060E875E280E090E007D00BDE0CDFA9
:10051000789424DE80932C02FCCF0F931F93522FEC
:100520008B019C010E561109210931090339114C27
:1005300021403105D0F545504430B8F520E22093F4
:10054000C00028E12093C100440F4093C2005534FD
:1005500031F4E2ECF0E020812062208307C05F34B8
:1005600029F4E2ECF0E0208120632083DC01CB0160
:10057000880F991FAA1FBB1F880F991FAA1FBB1F97
:100580009C01AD01220F331F441F551F220F331F43
:10059000441F551F60E074E284EF90E03AD0215090
:1005A00031092093C4003093C5001F910F91089525
:1005B000E0ECF0E0908195FFFDCF8093C6000895B8
:1005C000CF93DF93EC018881882329F02196F0DF17
:1005D00089918111FCCFDF91CF910895CF93DF9363
:1005E000CDB7DEB727970FB6F894DEBF0FBECDBFED
:1005F0004AE0BE016F5F7F4F4AD0CE010196E0DF37
:1006000027960FB6F894DEBF0FBECDBFDF91CF9116
:100610000895A1E21A2EAA1BBB1BFD010DC0AA1F43
:10062000BB1FEE1FFF1FA217B307E407F50720F05B
:10063000A21BB30BE40BF50B661F771F881F991FD6
:100640001A9469F760957095809590959B01AC011F
:10065000BD01CF010895052E97FB16F400940FD02D
:1006600057FD05D0D6DF07FC02D046F408C05095F0
:100670004095309521953F4F4F4F5F4F089590958E
:100680008095709561957F4F8F4F9F4F0895BB2741
:100690004A3031F4992322F4BDE2909581959F4F21
:1006A00001C0BB27FB015527AA27880F991FAA1F46
:1006B000A41710F0A41B83955051B9F7A05DAA337D
:1006C00008F0A95DA193009779F7B111B193119248
:1006D000CB0100C0DC01FC01672F71917723E1F7AA
:1006E000329704C07C916D9370836291AE17BF07FF
:0806F000C8F30895F894FFCF50
:1006F80020526564200D0A0020477265656E200D42
:0C0708000A0020426C7565200D0A0000FC
:00000001FF
